:0436C0004114780039
:0C81C600E4FB7D027F01126CE0C29222FB
:0F81A900E49013F6F0A3F0D2929014787432F0B1
:0181B80022A4
:040003007F06DFFE97
:0100070022D6
:047F96008F828E83C5
:107F9A0043C110E4FFFEC3EF9582EE95835019E4C6
:107FAA00FDFC7B06DBFE0DBD00010CBC03F4BDE845
:087FBA00F10FBF00010E80DE93
:017FC200229C
:047FF0008F828E836B
:107FF400E4FFFEC3EF9582EE95835019E4FDFC7B0C
:1080040006DBFE0DBD00010CED64014C70F10FBFE9
:0580140000010E80DEFA
:018019002244
:1036C40041145500421453000042145000004114A8
:0636D4004F0141145200F9
:03000B000273F588
:1073F500C0E0C083C082C0D075D008C28D9014553E
:10740500E0640160030274CD901454E004F070064A
:10741500901453E004F0D3901454E094E89014537E
:10742500E094034027E4F0A3F0901477E004F070B3
:1074350006901476E004F0C3901477E094B49014A9
:1074450076E094004006E4F0A3F0D2B5901443E052
:1074550004F0E0C394284007E4F090143204F0905F
:107465001451E004F07006901450E004F0C3901439
:1074750051E09490901450E09401400FE4F0A3F093
:10748500A3E06401F090144F7401F0901430E060B3
:1074950026901442E004F07006901441E004F0C315
:1074A500901442E094E8901441E094034009E4F01C
:1074B500A3F090143C04F0901478E0D394004008B5
:1074C500E014F0E07002C292901346E0D3940050AD
:1074D500030275A7E014F0E060030275A790139806
:1074E500E0FFB4361B901349E0B4B11490137DE06E
:1074F500B4AA0D9013EF7401F0901347F00275A72D
:10750500EFB4151C901349E0B4B21590135CE0B4C8
:10751500AA0E9013EF7402F090134714F00275A7AA
:10752500901398E0B40615901349E0B4B30E901388
:107535004DE0B4AA079013EF74038050901398E0C0
:10754500FFB40615901349E0B4B40E90134DE0B4A2
:10755500AA079013EF74048033EFB406159013490E
:10756500E0B4B50E90134DE0B4AA079013EF74057F
:10757500801A901398E0B4061C901349E0B4B61530
:1075850090134DE0B4AA0E9013EF7406F0901347D4
:107595007401F0800D539AEF0000439A10901398F0
:0B75A500E4F0D0D0D082D083D0E032E0
:03004300027AE856
:0B7AE800C0E0C083C082C0D075D00891
:107AF300E59A30E109539AFD9013EE7401F0E59A8B
:107B030030E03A539AFE9013EA7401F0AF9B90135E
:107B130046740AF0901398E0FEC3943C501F9013F0
:107B230047E0701974482EF582E43413F583EFF0BF
:0D7B3300901348E0B45506901398E004F05C
:097B4000D0D0D082D083D0E03215
:107F6500D2A9C299C298C2ABC2AC539AFD539AFE2C
:107F750053AFFB43AF0153ACFD53ACFE53AFDF53DF
:107F8500AFF75384FD5384FE53AFBF53AFEFD2AF6A
:017F950022C9
:1036DA004412E2000000004412DE0000000044131D
:1036EA0042000000004412D0000000004412E6002C
:1036FA0000000042133C00004212F200004212D8BD
:10370A0000004212DC00004413384416000044133F
:10371A003E420400004212FC0014421306003C42DE
:10372A001310005042131A003C4213240014421290
:10373A00CA00014212CC00034212CE00044212D443
:10374A0000034212D6000142128800014212DA0036
:10375A00014412EA00000000441302000000004481
:10376A0012EE0000000044130C000000004412F4A2
:10377A0000000000441316000000004412F8000084
:10378A000000441320000000004412FE0000000064
:10379A0044132600000000441308000000004413EC
:1037AA002A000000004413120000000044133000F5
:1037BA0000000044131C0000000044133400000001
:1037CA00006040128A0000000000000000000000B3
:1037DA0000000000000000000000000000000000DF
:1037EA0000000000000000000000000000000000CF
:1037FA0000000000000000000000000000000000BF
:0A380A00000000000042132E000031
:107209007F127E0412813F9013F4EFF064557003EE
:107219000272B47F007E041281577D027F007E04D2
:107229001280F17D587F017E041280F1E4FD7F0216
:107239007E041280F17D217F037E041280F17D643A
:107249007404FFFE1280F17F051280ED7F06128023
:10725900ED7D647F077E041280F17D647F087E04E2
:107269001280F17D017F0A7E041280F1E4FD7F0B1B
:107279007E041280F17D057F0C7E041280F17D056C
:107289007F0D7E041280F17D017F0E7E041280F154
:107299007D017F0F7E041280F17D017F107E041233
:1072A90080F17D557F127E041280F17F007E0412E9
:1072B900813F9013F3EFF07F017E0412813F901319
:1072C900F4EFF0FD9013F3E0FCE4124DFB9013385A
:1072D9001251FF7F027E0412813F9013F3EFF07F7A
:1072E900037E0412813F9013F4EFF0FD9013F3E055
:1072F900FCE4124DFB90133E1251FF7404FFFE1281
:10730900813F9013F4EFF09012FCE4F0A3EFF07FCB
:10731900057E0412813F9013F4EFF0901306E4F018
:10732900A3EFF07F067E0412813F9013F4EFF090F3
:107339001310E4F0A3EFF07F077E0412813F90134E
:10734900F4EFF090131AE4F0A3EFF07F087E041233
:10735900813F9013F4EFF0901324E4F0A3EFF07F52
:107369000A7E0412813F9013F4EFF0901288E4F042
:10737900A3EFF07F0B7E0412813F9013F4EFF0909E
:1073890012DAE4F0A3EFF07F0C7E0412813F901330
:10739900F4EFF09012CAE4F0A3EFF07F0D7E04122F
:1073A900813F9013F4EFF09012CCE4F0A3EFF07F5B
:1073B9000E7E0412813F9013F4EFF09012CEE4F0A8
:1073C900A3EFF07F0F7E0412813F9013F4EFF0904A
:1073D90012D4E4F0A3EFF07F107E0412813F9013E2
:0B73E900F4EFF09012D6E4F0A3EFF0F8
:0173F4002276
:0D81B900E4F5C7F5C5F5C675C380F5C42211
:10813F0075C78175C5018FC4EEF5C375C65A75C66F
:07814F00A500AFC21281B9C7
:018156002206
:0480ED007D647E042C
:1080F10075C78175C5028FC4EEF5C3AF058FC27513
:09810100C65A75C6A5000281B939
:1081570075C78175C5038FC4EEF5C375C65A75C655
:05816700A5000281B932
:1038140041143F0041143B10411443004114320051
:103824004114260041144400411433004114310072
:1038340041142700411428004114290041142A008E
:1038440041142B0041142C0041142D0041142E006E
:1038540041142F004114360041143700411438003C
:103864004114390041143A004114300041143C0021
:1038740042144100004114400042143D000042142F
:10388400340000C180C181C182C183C184C185C1AA
:0B38940086C187C188C189C18AC18B31
:107A7C007B027D057F02126CE07B027D047F02128B
:107A8C006CE07B027D037F02126CE07B027D027F47
:107A9C0002126CE07B027D017F02126CE07B027DA6
:107AAC00027F04126CE07B02E4FD7F02126CE07B2F
:107ABC00027D017F04126CE07B027D077F03126C58
:107ACC00E07B027D067F03126CE07B027D017F056B
:0C7ADC00126CE07B02E4FD7F05026CE010
:10004600E4FE25E0FFEE33FEA2A1E433FDEF4D25ED
:10005600E0FFEE33FEA2C2E433FDEF4D25E0FFEEF6
:1000660033FEA2A5E433FDEF4D25E0FFEE33FEA2FD
:10007600C8E433FDEF4D25E0FFEE33FEA2A0E433E6
:10008600FDEF4D25E0FFEE33FEA2A4E433FDEF4D78
:1000960025E0FFEE33FEA2C9E433FDEF4D25E0FF78
:1000A600EE33FEA2C1E433FDEF4D25E0FFEE33FE55
:1000B600A2A3E433FDEF4D25E0FFEE33FEA2B6E446
:1000C60033FDEF4D25E0FFEE33FEA2B7E433FDEF3F
:1000D6004D25E0FFEE33FEA2A2E433FDEF4D8EF098
:1000E60012525101210000017C000101750002013C
:1000F6006E0004016700080160001001590020012C
:10010600520040014B008001440100013D02000104
:100116003004000124080000000184E480069014E5
:100126003B7401F090143FF0805A90143B7402F037
:1001360090143F14F0804D90143B7403803D90144E
:100146003B7404803690143B7405802F90143B74E6
:1001560006802890143B7407802190143B74088015
:100166001A90143B7409801390143B740A800C9007
:10017600143B740B800590143B740CF080009014B3
:100186003F7401F090143FE06003021B9C90143B07
:10019600E0FF64107003021B9CEF14B40C004003D4
:1001A600021B8C9001B775F003A4C58325F0C583A7
:1001B600730201DB020785020FB902038F0203B641
:1001C6000203750203690203E502021B020223020F
:1001D6000296020300E4901430F0901441F0A3F06C
:1001E60090143CF090132FE004F0700690132EE06C
:1001F60004F0E490132EF0A3E05401F0901426E0EE
:10020600B401030203AD901426E0C3940250030226
:100216001B8C0203DCA2A6B392A6021B8C90143E92
:10022600E06401F09014267401F0E4901430F0902C
:100236001441F0A3F090143CF09014447402F09032
:10024600143DE07002A3E070449013F27406F0903F
:1002560013997455F0A374A6F07B017A13799A7DED
:1002660001127918901286EEF0A3EFF0901286E054
:10027600FCA3E0FDEC90139BF0A3EDF0A374AAF0B1
:100286007B017A1379997D057C00127E240203ADE9
:1002960090143DE07004A3E064016003021B8C909F
:1002A600142604F0E4901430F0901441F0A3F0907A
:1002B600143CF09013F27404F09013997455F0A363
:1002C60074A4F07B017A13799A7D01127918901241
:1002D60086EEF0A3EFF0901286E0FCA3E0FDEC9032
:1002E600139BF0A3EDF0A374AAF07B017A1379991E
:1002F6007D057C00127E240203AD90143DE070045F
:10030600A3E064016003021B8C90142604F0E490C1
:100316001430F0901441F0A3F090143CF09013F2D6
:100326007405F09013997455F0A374A5F07B017AC7
:1003360013799A7D01127918901286EEF0A3EFF0E8
:10034600901286E0FCA3E0FDEC90139BF0A3EDF089
:10035600A374AAF07B017A1379997D057C00127E3D
:100366002480449014267401F0901430F080389064
:1003760014267402F0E4901430F0901441F0A3F0C7
:1003860090143CF0126FC5804D9014267401F0E471
:10039600901441F0A3F090143CF0127E6C9014443B
:1003A600E004F0E05403F0127F2F126893021B8CD6
:1003B6009014267402F0E4901430F0901441F0A3E7
:1003C600F090143CF0127EB0901433E004F0E07527
:1003D600F00384E5F0F0127F2F1258F4021B8C9084
:1003E6001426E0FFB402187403F0901433E0FEB450
:1003F60001030217A6EEB402030211C3021932EF7B
:1004060064037075901433E0B4012C901427E00453
:10041600F0E4FFFE7D7A7C44901338E0F8A3E0F91F
:10042600A3E0FAA3E0FB74F0124D8B901427E04092
:100436000302072A020730901433E0B4021C90141A
:100446002BE004F0C3901307E0940A901306E0949F
:100456000090142BE0401F020775901437E004F05B
:10046600C3901325E0940A901324E0940090143767
:10047600E04003020775020757901426E0FFB40414
:10048600187405F0901433E0FEB40103021A06EE68
:10049600B4020302140A021B87EF640570789014F5
:1004A60033E0B4012C901428E004F0E4FFFE7D7ADA
:1004B6007C4490133EE0F8A3E0F9A3E0FAA3E0FB46
:1004C60074F0124D8B901428E0400302072A0207AD
:1004D60030901433E0B4021F90142CE004F0C39063
:1004E60012CDE0940A9012CCE0940090142CE040D7
:1004F60003020775020757901438E004F0C3901200
:10050600D7E0940A9012D6E09400901438E04003A5
:10051600020775020757901426E0FFB40618740701
:10052600F0901433E0FEB401030214DAEEB40203D1
:1005360002153F02159FEF64077069901433E0FDC2
:10054600B4011F901429E004F0C39012FDE0940A50
:100556009012FCE09400901429E040030207750213
:100566000757EDB4021F90142DE004F0C390131149
:10057600E0940A901310E0940090142DE0400302DA
:100586000775020757901439E004F0C3901289E00A
:10059600940A901288E09400901439E04003020710
:1005A60075020757901426E0FFB408187409F090F6
:1005B6001433E0FEB40103021610EEB40203021671
:1005C600750216D5EF64097069901433E0FDB40125
:1005D6001F90142AE004F0C39012CBE0940A901204
:1005E600CAE0940090142AE04003020775020757F8
:1005F600EDB4021F90142EE004F0C39012CFE094E5
:100606000A9012CEE0940090142EE0400302077583
:1006160002075790143AE004F0C39012DBE0940A04
:100626009012DAE0940090143AE040030207750253
:100636000757901426E0FFB40A18740BF090143391
:10064600E0FEB401030217A6EEB402030218D202BA
:100656001932EF640B7078901433E0B4012C9014C7
:1006660027E004F0E4FFFE7D7A7C44901338E0F83E
:10067600A3E0F9A3E0FAA3E0FB74F0124D8B90140B
:1006860027E0400302072A020730901433E0B40241
:100696001F90142FE004F0C390131BE0940A9013EC
:1006A6001AE0940090142FE04003020775020757E2
:1006B600901437E004F0C3901325E0940A901324B5
:1006C600E09400901437E040030207750207579044
:1006D6001426E0FFB40C18740DF0901433E0FEB449
:1006E6000103021A06EEB40203021B31021B87EF56
:1006F600640D6003021B8C901433E0B40131901436
:1007060028E004F0E4FFFE7D7A7C4490133EE0F896
:10071600A3E0F9A3E0FAA3E0FB74F0124D8B90146A
:1007260028E040065403F0021B8C75F003804990C4
:100736001433E0B40220901436E004F0C39012D5CE
:10074600E0940A9012D4E09400901436E0400280BF
:100756001E75F0018022901438E004F0C39012D781
:10076600E0940A9012D6E09400901438E0400654C3
:1007760001F0021B8C75F00184E5F0F0021B8C90F1
:100786001426E0FFB4011E901444E070189014354E
:10079600E004F07006901434E004F0E4901434F0B1
:1007A600A3E05407F0EF64036003020903901433D7
:1007B600E064016003020866901427E014603214B6
:1007C600605414607624036003021B8C7F007E381D
:1007D6007D1C7C46901338E0F8A3E0F9A3E0FAA369
:1007E600E0FB74F0124D8B60054003021B8C020C7B
:1007F6009E7F007E147D1C7C46901338E0F8A3E0B3
:10080600F9A3E0FAA3E0FB74F0124D8B60054003F8
:10081600021B8C020CD87F007EAC7D1A7C4690139E
:1008260038E0F8A3E0F9A3E0FAA3E0FB74F0124D78
:100836008B60054003021B8C020D127F007E9C7D9F
:100846000C7C46901338E0F8A3E0F9A3E0FAA3E0A5
:10085600FB74F0124D8B60054003021B8C020D4C9D
:10086600901433E0B4024B90142BE014602704601C
:1008760003021B8CD3901307E09463901306E09455
:10088600004003021B8CA3E004F07051901306E0B5
:1008960004F0021B8CD3901307E09459901306E0E2
:1008A60094004003021B8CA3E0240AF09013060276
:1008B6000FB2901437E0146027046003021B8CD338
:1008C600901325E09463901324E094004003021BE8
:1008D6008CA3E004F07006901324E004F0021B8C55
:1008E600D3901325E09459901324E094004003021A
:1008F6001B8CA3E0240AF0901324020FB290142656
:10090600E064056003020A5E901433E0640160034C
:100916000209C1901428E014603214605414607601
:1009260024036003021B8C7F007E387D1C7C46906E
:10093600133EE0F8A3E0F9A3E0FAA3E0FB74F0129B
:100946004D8B60054003021B8C020E537F007E1404
:100956007D1C7C4690133EE0F8A3E0F9A3E0FAA3E1
:10096600E0FB74F0124D8B60054003021B8C020EF7
:100976008D7F007EAC7D1A7C4690133EE0F8A3E0A6
:10098600F9A3E0FAA3E0FB74F0124D8B6005400377
:10099600021B8C020EC77F007E9C7D0C7C4690134A
:1009A6003EE0F8A3E0F9A3E0FAA3E0FB74F0124DF1
:1009B6008B60054003021B8C020F01901433E0B4D8
:1009C600024B90142CE0146027046003021B8CD3A6
:1009D6009012CDE094179012CCE094004003021BD5
:1009E6008CA3E004F070069012CCE004F0021B8C9D
:1009F600D39012CDE0940D9012CCE0940040030207
:100A06001B8CA3E0240AF09012CC020FB29014388B
:100A1600E0146027046003021B8CD39012D7E09485
:100A2600179012D6E094004003021B8CA3E004F05A
:100A360070069012D6E004F0021B8CD39012D7E019
:100A4600940D9012D6E094004003021B8CA3E02480
:100A56000AF09012D6020FB2901426E0FF640760E7
:100A660003020B57901433E0FEB4014B901429E0B7
:100A7600146027046003021B8CD39012FDE094637C
:100A86009012FCE094004003021B8CA3E004F0707B
:100A9600069012FCE004F0021B8CD39012FDE09449
:100AA600599012FCE094004003021B8CA3E0240A38
:100AB600F09012FC020FB2EEB4024B90142DE0142B
:100AC6006027046003021B8CD3901311E09463909B
:100AD6001310E094004003021B8CA3E004F07006A0
:100AE600901310E004F0021B8CD3901311E094597C
:100AF600901310E094004003021B8CA3E0240AF03C
:100B0600901310020FB2901439E0146027046003AA
:100B1600021B8CD3901289E0943B901288E09400DB
:100B26004003021B8CA3E004F07006901288E004D8
:100B3600F0021B8CD3901289E09431901288E094D5
:100B4600004003021B8CA3E0240AF0901288020FD7
:100B5600B2EF64096003020C4C901433E0FFB40159
:100B66004B90142AE0146027046003021B8CD39078
:100B760012CBE094179012CAE094004003021B8C3B
:100B8600A3E004F070069012CAE004F0021B8CD3B6
:100B96009012CBE0940D9012CAE094004003021B21
:100BA6008CA3E0240AF09012CA020FB2EFB4024BF3
:100BB60090142EE0146027046003021B8CD390125D
:100BC600CFE094179012CEE094004003021B8CA352
:100BD600E004F070069012CEE004F0021B8CD39075
:100BE60012CFE0940D9012CEE094004003021B8CCD
:100BF600A3E0240AF09012CE020FB290143AE01449
:100C06006027046003021B8CD39012DBE0943B90B8
:100C160012DAE094004003021B8CA3E004F0700695
:100C26009012DAE004F0021B8CD39012DBE09431D0
:100C36009012DAE094004003021B8CA3E0240AF031
:100C46009012DA020FB2901426E0640B6003020ED3
:100C560001901433E064016003020D64901427E0F0
:100C660014604D147003020CF0147003020D2A2454
:100C7600036003021B8C7F007E387D1C7C4690132C
:100C860038E0F8A3E0F9A3E0FAA3E0FB74F0124D14
:100C96008B60054003021B8C901338E0FCA3E0FD3B
:100CA600A3E0FEA3E0FFE4FBFA7980783F02174158
:100CB6007F007E147D1C7C46901338E0F8A3E0F993
:100CC600A3E0FAA3E0FB74F0124D8B60054003022B
:100CD6001B8C901338E0FCA3E0FDA3E0FEA3E0FF2D
:100CE600E4FBFA792078410217417F007EAC7D1A39
:100CF6007C46901338E0F8A3E0F9A3E0FAA3E0FB02
:100D060074F0124D8B60054003021B8C901338E083
:100D1600FCA3E0FDA3E0FEA3E0FFE4FBFA79C878BC
:100D2600420217417F007E9C7D0C7C46901338E082
:100D3600F8A3E0F9A3E0FAA3E0FB74F0124D8B6090
:100D4600054003021B8C901338E0FCA3E0FDA3E0F2
:100D5600FEA3E0FFE4FBFA797A7844021741901487
:100D660033E0B4024B90142FE014602704600302B2
:100D76001B8CD390131BE0946390131AE0940040ED
:100D860003021B8CA3E004F0700690131AE004F033
:100D9600021B8CD390131BE0945990131AE0940015
:100DA6004003021B8CA3E0240AF090131A020FB230
:100DB600901437E0146027046003021B8CD3901351
:100DC60025E09463901324E094004003021B8CA357
:100DD600E004F07006901324E004F0021B8CD3901C
:100DE6001325E09459901324E094004003021B8CD1
:100DF600A3E0240AF0901324020FB2901426E064B4
:100E06000D6003021B8C901433E064016003020F33
:100E160019901428E014604D147003020EA5147086
:100E260003020EDF24036003021B8C7F007E387DE5
:100E36001C7C4690133EE0F8A3E0F9A3E0FAA3E099
:100E4600FB74F0124D8B60054003021B8C90133E21
:100E5600E0FCA3E0FDA3E0FEA3E0FFE4FBFA79805B
:100E6600783F02199E7F007E147D1C7C4690133EBF
:100E7600E0F8A3E0F9A3E0FAA3E0FB74F0124D8BCF
:100E860060054003021B8C90133EE0FCA3E0FDA32B
:100E9600E0FEA3E0FFE4FBFA7920784102199E7F89
:100EA600007EAC7D1A7C4690133EE0F8A3E0F9A3E1
:100EB600E0FAA3E0FB74F0124D8B60054003021BC1
:100EC6008C90133EE0FCA3E0FDA3E0FEA3E0FFE46C
:100ED600FBFA79C8784202199E7F007E9C7D0C7CC5
:100EE6004690133EE0F8A3E0F9A3E0FAA3E0FB7412
:100EF600F0124D8B60054003021B8C90133EE0FC04
:100F0600A3E0FDA3E0FEA3E0FFE4FBFA797A7844D0
:100F160002199E901433E0B4024A901436E014602D
:100F260027046003021B8CD39012D5E0941790120D
:100F3600D4E094004003021B8CA3E004F0700690FA
:100F460012D4E004F0021B8CD39012D5E0940D90DD
:100F560012D4E094004003021B8CA3E0240AF09014
:100F660012D48048901438E0146027046003021BF2
:100F76008CD39012D7E094179012D6E094004003D9
:100F8600021B8CA3E004F070069012D6E004F00277
:100F96001B8CD39012D7E0940D9012D6E0940040AB
:100FA60003021B8CA3E0240AF09012D6E03400F072
:100FB600021B8C901426E0FFB40121901444E070CB
:100FC6001BD3901435E09400901434E09400400C48
:100FD600A3E024FFF0901434E034FFF0EF640360E4
:100FE60003021226901433E0640160030211639039
:100FF6001427E014604A1470030210A5147003024B
:10100600110424036003021B8CE4FFFE7D807C3FF9
:10101600901338E0F8A3E0F9A3E0FAA3E0FB74F03C
:10102600124D8B5003021B8C901338E0FCA3E0FD9D
:10103600A3E0FEA3E0FFE4FBFA798078BF02174144
:10104600E4FFFE7D207C41901338E0F8A3E0F9A38D
:10105600E0FAA3E0FB74F0124D8B5003021B8C9058
:101066001338E0FCA3E0FDA3E0FEA3E0FFE4FBFAF7
:10107600792078C1124BF89013381251FFE4FFFE25
:101086007D207C41901338E0F8A3E0F9A3E0FAA3B1
:10109600E0FB74F0124D8B4003021B8C0217A6E492
:1010A600FFFE7DC87C42901338E0F8A3E0F9A3E088
:1010B600FAA3E0FB74F0124D8B5003021B8C9013C5
:1010C60038E0FCA3E0FDA3E0FEA3E0FFE4FBFA7931
:1010D600C878C2124BF89013381251FFE4FFFE7D18
:1010E600C87C42901338E0F8A3E0F9A3E0FAA3E045
:1010F600FB74F0124D8B4003021B8C02180AE4FFAE
:10110600FE7D7A7C44901338E0F8A3E0F9A3E0FA78
:10111600A3E0FB74F0124D8B5003021B8C90133826
:10112600E0FCA3E0FDA3E0FEA3E0FFE4FBFA797A8E
:1011360078C4124BF89013381251FFE4FFFE7D7A03
:101146007C44901338E0F8A3E0F9A3E0FAA3E0FBAF
:1011560074F0124D8B4003021B8C02186C901433F2
:10116600E06402706090142BE014602304600302B4
:101176001B8CC3901307E09401901306E094005073
:1011860003021B8CA3E024FFF0901306021B59C335
:10119600901307E0940A901306E094005003021B94
:1011A6008CA3E024F6F0901306E034FFF0C3A3E02E
:1011B600940A901306E094004003021B8CE49014FA
:1011C6002BF0021B8C901437E0146023046003029A
:1011D6001B8CC3901325E09401901324E0940050D7
:1011E60003021B8CA3E024FFF0901324021B59C3B7
:1011F600901325E0940A901324E094005003021BF8
:101206008CA3E024F6F0901324E034FFF0C3A3E0AF
:10121600940A901324E094004003021B8C021932B6
:10122600901426E06405600302146D901433E064A4
:101236000160030213AA901428E014604A14700394
:101246000212EC14700302134B24036003021B8C7E
:10125600E4FFFE7D807C3F90133EE0F8A3E0F9A317
:10126600E0FAA3E0FB74F0124D8B5003021B8C9046
:10127600133EE0FCA3E0FDA3E0FEA3E0FFE4FBFADF
:10128600798078BF02199EE4FFFE7D207C41901391
:101296003EE0F8A3E0F9A3E0FAA3E0FB74F0124DF8
:1012A6008B5003021B8C90133EE0FCA3E0FDA3E0F1
:1012B600FEA3E0FFE4FBFA792078C1124BF8901305
:1012C6003E1251FFE4FFFE7D207C4190133EE0F884
:1012D600A3E0F9A3E0FAA3E0FB74F0124D8B400300
:1012E600021B8C021A06E4FFFE7DC87C4290133E68
:1012F600E0F8A3E0F9A3E0FAA3E0FB74F0124D8B4B
:101306005003021B8C90133EE0FCA3E0FDA3E0FE1D
:10131600A3E0FFE4FBFA79C878C2124BF890133EBB
:101326001251FFE4FFFE7DC87C4290133EE0F8A315
:10133600E0F9A3E0FAA3E0FB74F0124D8B40030240
:101346001B8C021A6AE4FFFE7D7A7C4490133EE011
:10135600F8A3E0F9A3E0FAA3E0FB74F0124D8B507A
:1013660003021B8C90133EE0FCA3E0FDA3E0FEA36A
:10137600E0FFE4FBFA797A78C4124BF890133E1238
:1013860051FFE4FFFE7D7A7C4490133EE0F8A3E033
:10139600F9A3E0FAA3E0FB74F0124D8B4003021BA5
:1013A6008C021ACF901433E06402706090142CE023
:1013B600146023046003021B8CC39012CDE09401D9
:1013C6009012CCE094005003021B8CA3E024FFF0A3
:1013D6009012CC021B59C39012CDE0940A9012CC05
:1013E600E094005003021B8CA3E024F6F09012CC8C
:1013F600E034FFF0C3A3E0940A9012CCE0940040DE
:1014060003021B8CE490142CF0021B8C901438E021
:10141600146023046003021B8CC39012D7E094016E
:101426009012D6E094005003021B8CA3E024FFF038
:101436009012D6021B59C39012D7E0940A9012D686
:10144600E094005003021B8CA3E024F6F09012D621
:10145600E034FFF0C3A3E0940A9012D6E094004073
:1014660003021B8C021B87901426E0FF64076003AF
:101476000215A7901433E0FE64017060901429E011
:10148600146023046003021B8CC39012FDE09401D8
:101496009012FCE094005003021B8CA3E024FFF0A2
:1014A6009012FC021B59C39012FDE0940A9012FCA4
:1014B600E094005003021B8CA3E024F6F09012FC8B
:1014C600E034FFF0C3A3E0940A9012FCE0940040DD
:1014D60003021B8CE4901429F0021B8CEE6402704C
:1014E6006090142DE0146023046003021B8CC390EB
:1014F6001311E09401901310E094005003021B8C2A
:10150600A3E024FFF0901310021B59C3901311E0BF
:10151600940A901310E094005003021B8CA3E0245D
:10152600F6F0901310E034FFF0C3A3E0940A901392
:1015360010E094004003021B8CE490142DF0021B73
:101546008C901439E0146023046003021B8CC39052
:101556001289E09401901288E094005003021B8CDB
:10156600A3E024FFF0901288021B59C3901289E071
:10157600940A901288E094005003021B8CA3E02486
:10158600F6F0901288E034FFF0C3A3E0940A9012BC
:1015960088E094004003021B8CE4901439F0021B8F
:1015A6008CEF640960030216DD901433E0FF6401DA
:1015B600706090142AE0146023046003021B8CC33D
:1015C6009012CBE094019012CAE094005003021BE3
:1015D6008CA3E024FFF09012CA021B59C39012CBD1
:1015E600E0940A9012CAE094005003021B8CA3E018
:1015F60024F6F09012CAE034FFF0C3A3E0940A90F8
:1016060012CAE094004003021B8CE490142AF002F4
:101616001B8CEF6402706090142EE014602304604B
:1016260003021B8CC39012CFE094019012CEE0947B
:10163600005003021B8CA3E024FFF09012CE021B85
:1016460059C39012CFE0940A9012CEE09400500352
:10165600021B8CA3E024F6F09012CEE034FFF0C318
:10166600A3E0940A9012CEE094004003021B8CE49F
:1016760090142EF0021B8C90143AE0146023046040
:1016860003021B8CC39012DBE094019012DAE09403
:10169600005003021B8CA3E024FFF09012DA021B19
:1016A60059C39012DBE0940A9012DAE094005003DA
:1016B600021B8CA3E024F6F09012DAE034FFF0C3AC
:1016C600A3E0940A9012DAE094004003021B8CE433
:1016D60090143AF0021B8C901426E0640B6003020F
:1016E600193A901433E064016003021872901427CB
:1016F600E01460501470030217AE14700302181041
:1017060024036003021B8CE4FFFE7D807C3F901364
:1017160038E0F8A3E0F9A3E0FAA3E0FB74F0124D79
:101726008B5003021B8C901338E0FCA3E0FDA3E072
:10173600FEA3E0FFE4FBFA798078BF124BF8901322
:10174600380219A4E4FFFE7D207C41901338E0F8AE
:10175600A3E0F9A3E0FAA3E0FB74F0124D8B50036B
:10176600021B8C901338E0FCA3E0FDA3E0FEA3E08F
:10177600FFE4FBFA792078C1124BF8901338125126
:10178600FFE4FFFE7D207C41901338E0F8A3E0F9EA
:10179600A3E0FAA3E0FB74F0124D8B4003021B8C0E
:1017A600E4901427F0021B8CE4FFFE7DC87C429077
:1017B6001338E0F8A3E0F9A3E0FAA3E0FB74F01213
:1017C6004D8B5003021B8C901338E0FCA3E0FDA365
:1017D600E0FEA3E0FFE4FBFA79C878C2124BF8906A
:1017E60013381251FFE4FFFE7DC87C42901338E0A7
:1017F600F8A3E0F9A3E0FAA3E0FB74F0124D8B40E6
:1018060003021B8C901427021A6DE4FFFE7D7A7C7E
:1018160044901338E0F8A3E0F9A3E0FAA3E0FB74E0
:10182600F0124D8B5003021B8C901338E0FCA3E0A2
:10183600FDA3E0FEA3E0FFE4FBFA797A78C4124B3D
:10184600F89013381251FFE4FFFE7D7A7C44901322
:1018560038E0F8A3E0F9A3E0FAA3E0FB74F0124D38
:101866008B4003021B8C901427021AD2901433E08B
:101876006402706090142FE0146023046003021B5E
:101886008CC390131BE0940190131AE0940050034C
:10189600021B8CA3E024FFF090131A021B59C3907D
:1018A600131BE0940A90131AE094005003021B8C59
:1018B600A3E024F6F090131AE034FFF0C3A3E094FB
:1018C6000A90131AE094004003021B8CE490142F34
:1018D600F0021B8C901437E0146023046003021B93
:1018E6008CC3901325E09401901324E094005003D8
:1018F600021B8CA3E024FFF0901324021B59C39013
:101906001325E0940A901324E094005003021B8CE4
:10191600A3E024F6F0901324E034FFF0C3A3E09490
:101926000A901324E094004003021B8CE4901437C1
:10193600F0021B8C901426E0640D6003021B8C9051
:101946001433E064016003021AD8901428E014608E
:1019560053147003021A0E147003021A73240360E0
:1019660003021B8CE4FFFE7D807C3F90133EE0F873
:10197600A3E0F9A3E0FAA3E0FB74F0124D8B500349
:10198600021B8C90133EE0FCA3E0FDA3E0FEA3E067
:10199600FFE4FBFA798078BF124BF890133E1251A0
:1019A600FF021B8CE4FFFE7D207C4190133EE0F895
:1019B600A3E0F9A3E0FAA3E0FB74F0124D8B500309
:1019C600021B8C90133EE0FCA3E0FDA3E0FEA3E027
:1019D600FFE4FBFA792078C1124BF890133E1251BE
:1019E600FFE4FFFE7D207C4190133EE0F8A3E0F982
:1019F600A3E0FAA3E0FB74F0124D8B4003021B8CAC
:101A0600E4901428F0021B8CE4FFFE7DC87C429013
:101A1600133EE0F8A3E0F9A3E0FAA3E0FB74F012AA
:101A26004D8B5003021B8C90133EE0FCA3E0FDA3FC
:101A3600E0FEA3E0FFE4FBFA79C878C2124BF89007
:101A4600133E1251FFE4FFFE7DC87C4290133EE038
:101A5600F8A3E0F9A3E0FAA3E0FB74F0124D8B4083
:101A660003021B8C9014287401F0021B8CE4FFFE09
:101A76007D7A7C4490133EE0F8A3E0F9A3E0FAA354
:101A8600E0FB74F0124D8B5003021B8C90133EE06A
:101A9600FCA3E0FDA3E0FEA3E0FFE4FBFA797A787D
:101AA600C4124BF890133E1251FFE4FFFE7D7A7C80
:101AB6004490133EE0F8A3E0F9A3E0FAA3E0FB7438
:101AC600F0124D8B4003021B8C9014287402F00216
:101AD6001B8C901433E064027058901436E0146046
:101AE60022046003021B8CC39012D5E0940190126D
:101AF600D4E094005003021B8CA3E024FFF0901264
:101B0600D48050C39012D5E0940A9012D4E0940089
:101B16004074A3E024F6F09012D4E034FFF0C3A39F
:101B2600E0940A9012D4E09400505BE4901436F0EE
:101B36008054901438E014602004704AC39012D781
:101B4600E094019012D6E09400403BA3E024FFF01D
:101B56009012D6E034FFF0802DC39012D7E0940A9D
:101B66009012D6E09400401EA3E024F6F09012D620
:101B7600E034FFF0C3A3E0940A9012D6E09400503C
:101B860005E4901438F090143B7410F0E490147649
:101B9600F0A3F01281A9901426E06403704E90140D
:101BA6003BE064086003021D8D90143FE064016011
:101BB60003021D8D901431E0C3940F5003021D5C87
:101BC600E4901431F0901433E0FFB40107E490146C
:101BD60027F08010EFB40207E490142BF08005E4A0
:101BE600901437F09014267404021D89901426E090
:101BF6006405704B90143BE06408704090143FE01D
:101C060064017038901431E0C3940F5003021D5CD8
:101C1600E4901431F0901433E0FFB40107E490141B
:101C260028F08010EFB40207E490142CF08005E44D
:101C3600901438F09014267406021D89021D8D90AA
:101C46001426E06407704B90143BE06408704090E3
:101C5600143FE064017038901431E0C3940F5003D0
:101C6600021D5CE4901431F0901433E0FFB40107D8
:101C7600E4901429F08010EFB40207E490142DF0DC
:101C86008005E4901439F09014267408021D890228
:101C96001D8D901426E06409704B90143BE0640897
:101CA600704090143FE064017038901431E0C394A2
:101CB6000F5003021D5CE4901431F0901433E0FFE2
:101CC600B40107E490142AF08010EFB40207E49000
:101CD600142EF08005E490143AF0901426740A024B
:101CE6001D89021D8D901426E0640B704890143BEC
:101CF600E06408703E90143FE06401703690143141
:101D0600E0C3940F5002804EE4901431F0901433E7
:101D1600E0FFB40107E4901427F08010EFB4020747
:101D2600E490142FF08005E4901437F09014267494
:101D36000C80508052901426E0640D704F90143B36
:101D4600E06408704290143FE06401703A901431E8
:101D5600E0C3940F5004E004F022E4901431F090B4
:101D66001433E0FFB40107E4901428F08010EFB4B8
:101D76000207E4901436F08005E4901438F09014CD
:0C1D8600267402F00281A9E4901431F0F0
:011D9200222E
:1075B000257300312E50565F564F4C543A00322EF0
:1075C00042565F564F4C543A00332E4C565F564F3E
:1075D0004C543A00342E494E5F435552523A0035CE
:1075E0002E4F555F435552523A00362E53595F4D38
:1075F0004F44453A00312E50435F564F4C543A00A9
:10760000322E4C4F5F435552523A00332E5354455D
:10761000505F30313A00342E535445505F30323A87
:1076200000352E535445505F30333A00362E5354B4
:1076300045505F30343A00372E535445505F303553
:107640003A00382E42545F4B494E443A00392E508E
:08765000435F54494D453A0027
:10389F004E08ED536F6C61722052656D6F74652128
:1038AF00004E08FB57656C636F6D696E672E2E2E89
:1038BF002E004809095B2D56312E305D005109311C
:1038CF002D2D5A4820616E6420504F5745522D2D93
:1038DF00004A09425B4368696E6573655D004A097A
:1038EF004C5B456E676C6973685D006100075DFF37
:1038FF0001010101010101010101010101018141E9
:10390F00211109FD01010101010101010101818560
:10391F009901414545C5454545414101011189C5BC
:10392F00330141454545C54545410101093101FF78
:10393F0001212121FF212529210101090989894916
:10394F00A91F294989890909010101010101010102
:10395F000101FD0911214181010101010101010154
:10396F000101010101010101010101010101FFFF3C
:10397F008080808080808080808080808081828431
:10398F008890A0FF80808080808080808080C0A011
:10399F009FA0C8CCCAC9C8CACCD8C080808180FFBC
:1039AF0080808080C0C0FF8080808080848281FF83
:1039BF00C0A09887808798A0C08080C1B180B8C010
:1039CF00C0C5D8C0E08089B1808080808080808031
:1039DF008080FFA09088848281808080808080801A
:1039EF008080808080808080808080808080FF6168
:1039FF00000020FF0101010101010101010101018D
:103A0F0001018141211109FD0101010101010101A3
:103A1F000109F989898971010109F9090109F9096F
:103A2F000109F939C109F909010101010101010177
:103A3F000109F909090911E1010101E119E1010187
:103A4F0001190909F9090919010101E119E1010137
:103A5F00010101010101FD09112141810101010153
:103A6F000101010101010101010101010101010137
:103A7F000101FFFF80808080808080808080808037
:103A8F00808182848890A0FF808080808080808069
:103A9F0080909F908186989080808F9090908F805B
:103AAF0080909F90818E9F8080808080808080809A
:103ABF0080909F909090888780909E9382939E9005
:103ACF00808080909F90808080909E9382939E9024
:103ADF00808080808080FFA0908884828180808019
:103AEF0080808080808080808080808080808080C7
:103AFF008080FF6100052DFF01010101010101011E
:103B0F000101010101814121110905FF010101019C
:103B1F00010101010101012121A96D2B3929A929D8
:103B2F006DB921210101955931FF31599581619F5E
:103B3F0011F11101014143CD0181413D0505053DC4
:103B4F0041410101015F53535F53F3535F53535F80
:103B5F0001010101010101010101FF0509112141CC
:103B6F0081010101010101010101010101010101B6
:103B7F00010101010101FFFF808080808080808032
:103B8F008080808080808182848890BF80808080C8
:103B9F0080808080808080C1D1D2D2CAA9A9A4920E
:103BAF00908881818080C2CAAFB292AEC080C0A718
:103BBF0098A7C080808080BF90C8C1A7A991A9A5F0
:103BCF00C3C08080C0C0FFC1C1C1F9C1C1C1FFC0A6
:103BDF00C0808080808080808080BF908884828138
:103BEF0080808080808080808080808080808080C6
:103BFF00808080808080FF61000F86FF01010101BE
:103C0F00010101010101010101814121110905FF9B
:103C1F000101010101017189890909390109F98935
:103C2F0089E9091101190909F909091901010101A5
:103C3F0001010109F98989898971010101E119E1FD
:103C4F0001010109F98989897101010101E119E175
:103C5F0001010109F9F901F9F90901010101010155
:103C6F00FF0509112141810101010101010101013B
:103C7F0001010101010101010101FFFF808080802D
:103C8F00808080808080808080808182848890BFC7
:103C9F008080808080809C909091918E80909F906A
:103CAF0090939088808080909F908080808080808B
:103CBF00808080909F908080808080909E93829360
:103CCF009E9080909F908186989080909E938293F3
:103CDF009E9080909F809F809F908080808080802A
:103CEF00BF90888482818080808080808080808067
:103CFF0080808080808080808080FF50050D000054
:103D0F001010F8000000000020203F202000500578
:103D1F001D007008080808F0000030282422213008
:103D2F000050064D00300808088870000018202148
:103D3F0021221C0050065D0000804030F80000007A
:103D4F00060524243F242450068D00F8888888080F
:103D5F0008000019202020110E0050069D00E010D1
:103D6F008888900000000F112020201F005006AD02
:103D7F0000180808886818000000003E01000000C5
:103D8F005006BD0070880808887000001C22212191
:103D9F00221C005006ED00F008080810E00000019A
:103DAF00122222110F0050089D0000000000000099
:103DBF0000003030000000000060200911000000FA
:103DCF0000000000000000000000000000000036AE
:103DDF00360000000000000000000000006020011D
:103DEF00404040424458C0407F40C0504846404049
:103DFF00008080402018070000003F40404040787E
:103E0F0000602001E0101010FF9020984828090E44
:103E1F002848A818000242817F0040404242427E5B
:103E2F004242424000602001600000F88888888884
:103E3F00FF88888888F800000000001F080808081D
:103E4F007F888888889F80F0006020071D0000FE13
:103E5F000282828282FA8282828282020080601FC4
:103E6F0040404040407F4040445840400060200761
:103E7F003D002010E8242724A424342CE000000067
:103E8F00000080804F402018071010204F80000046
:103E9F0000602004ED909494F49F9494941010FF7C
:103EAF001012D4100020262524FE1414148040274D
:103EBF00182641F0006020062D1060028C0044642B
:103ECF00544D46445464C4040004047E0180403EB3
:103EDF000000FE00007E80E0006020066D08049365
:103EEF0092969A92FA94939296FA02020040404761
:103EFF002424140CFF04042444241C000060200814
:103F0F00CD80808080808080808080808080808055
:103F1F000000000000000000000000000000000092
:103F2F0000602006FD0000080808080808080808B7
:103F3F0008080000001010101010101010101010B2
:103F4F001010101000602004AD0004848484848459
:103F5F008484848484840400002020202020202056
:103F6F002020202020202020006020087D00FC043D
:103F7F000404FC040404FC040404FC0000007F2877
:103F8F00242320202020212222227F0000602009CC
:103F9F00560002424242C27E42424242C2020200E6
:103FAF000040404040784740404040407F404040C4
:103FBF00006020024000FE0222DA064020900C032F
:103FCF000C9020400000FF0810080780601F0000C1
:103FDF0000FF000000602001A00000FE222221014E
:103FEF00403E0202021E2020001010FF110909801E
:103FFF00814729112945838000602002001060024B
:10400F00CC8080FC4020FF1008F800000004047EE4
:10401F000100003F40404F4044474078006020027D
:10402F006000101092543010FF1030549210100096
:10403F00008485454424140C060C142444458484C0
:10404F0000602002202022A27E2222FE2222007C5B
:10405F000000FF0000444249484848497E4848480C
:10406F00494A414000602004CD00FC848484FC0058
:10407F001010101010FF101000003F1010103F0014
:10408F0000010640807F0000006020018000F801E1
:10409F000600F0121212F2020202FE000000FF00F0
:1040AF0000001F1111111F0040807F0000602000D1
:1040BF0000008060F80720202020FF20222C2020E5
:1040CF0000010000FF8040201807000718204080E3
:1040DF0000602006CD88681FC80810C85452D1123E
:1040EF009408D01000091909FF0500FF1292FF0074
:1040FF005F807F00006020048D00007C40404040C6
:10410F00FF40404040FC000000007C4040404040E9
:10411F007F4040404040FC000060200120040484A8
:10412F00C4A49C85868484A4C48404040000808075
:10413F0040300F0000007F808081F0000060200180
:10414F00C000040404040404FC0404040404040074
:10415F0000202020202020203F2020202020202051
:10416F0000602008AD008060F80740300FF88888A5
:10417F008888080800010000FF00000000FF080801
:10418F0008080800006020085D1010D0FF9014E4AC
:10419F00AFA4A4A4AFE4040000040300FF00894B04
:1041AF002A1A0E1A2A4B88800060200F6610109072
:1041BF00909090901010FF101011161000002060BA
:1041CF00203F10101000030C102040F80065F0097C
:1041DF00760000000000000000000000000000005A
:1041EF0000000000F8000000000000003330000065
:1041FF000000100C06100C0600000000000000006C
:10420F000040C07840C0784000043F04043F0404DD
:10421F0000007088FC08300000001820FF211E00ED
:10422F0000F008F000E018000000211C031E211E02
:10423F000000F00888700000001E21232419272198
:10424F001010160E0000000000000000000000001B
:10425F0000000000E01804020000000007182040D2
:10426F000000020418E000000000402018070000C2
:10427F0000404080F0804040000202010F01020226
:10428F0000000000F0000000000101011F0101010A
:10429F0000000000000000000080B070000000006F
:1042AF0000000000000000000000010101010101F9
:1042BF00010000000000000000003030000000008E
:1042CF000000000000806018040060180601000064
:1042DF000000E010080810E000000F102020100F61
:1042EF0000001010F8000000000020203F202000E8
:1042FF000000700808088870000030282422213040
:10430F000000300888884830000018202020110E47
:10431F00000000C02010F8000000070424243F24F0
:10432F000000F80888880808000019212020110EC5
:10433F000000E0108888180000000F112020110ED7
:10434F000000380808C83808000000003F000000CF
:10435F00000070880808887000001C222121221C90
:10436F000000E010080810E0000000312222110FB9
:10437F0000000000C0C0000000000000303000004E
:10438F0000000000800000000000008060000000BE
:10439F0000000080402010080000010204081020D7
:1043AF000040404040404040000404040404040422
:1043BF0000000810204080000000201008040201B7
:1043CF0000007048080808F00000000030360100B7
:1043DF0000C030C828E810E0000718272423140B6A
:1043EF00000000C038E0000000203C230202273804
:1043FF002008F8888888700000203F202020110EA8
:10440F0000C03008080808380007182020201008BE
:10441F000008F808080810E000203F202020100FA7
:10442F000008F88888E8081000203F202023201873
:10443F000008F88888E8081000203F2000030000DB
:10444F0000C03008080838000007182020221E027C
:10445F000008F808000008F808203F210101213F5B
:10446F0020000808F8080800000020203F20200046
:10447F000000000808F8080800C08080807F000056
:10448F000008F888C028180800203F20012638208F
:10449F000008F8080000000000203F2020202030F6
:1044AF000008F8F800F8F80800203F003F003F2010
:1044BF000008F830C00008F808203F200007183F18
:1044CF0000E01008080810E0000F10202020100F47
:1044DF000008F808080808F000203F21010101003A
:1044EF0000E01008080810E0000F18242438504F7F
:1044FF000008F8888888887000203F2000030C305F
:10450F002000708808080838000038202121221C5C
:10451F0000180808F8080818000000203F200000C5
:10452F000008F808000008F808001F202020201FAE
:10453F00000878880000C83808000007380E01000E
:10454F0000F80800F80008F800033C0700073C03D8
:10455F0000081868808068180820302C03032C305E
:10456F00200838C800C83808000000203F2000008D
:10457F000010080808C83808002038262120201805
:10458F0000000000FE020202000000007F404040D9
:10459F0000000C30C000000000000000010638C011
:1045AF000000020202FE000000004040407F0000B9
:1045BF0000000004020202040000000000000000DE
:1045CF00000000000000000000808080808080805C
:1045DF008000020204000000000000000000000044
:1045EF000000008080808000000019242222223FDA
:1045FF002008F8008080000000003F112020110EDD
:10460F00000000008080800000000E11202020118B
:10461F0000000000808088F800000E112020103F5D
:10462F00200000808080800000001F2222222213A1
:10463F0000008080F0888888180020203F2020000C
:10464F00000000808080808000006B9494949360C1
:10465F000008F8008080800000203F210000203FEC
:10466F002000809898000000000020203F202000AC
:10467F0000000000809898000000C08080807F00BC
:10468F000008F8000080808000203F24022D302099
:10469F0000000808F8000000000020203F20200044
:1046AF00008080808080808000203F20003F20009D
:1046BF003F8080008080800000203F210000203F4D
:1046CF00200000808080800000001F202020201FFD
:1046DF0000808000808000000080FFA12020110E4C
:1046EF00000000008080808000000E112020A0FFBD
:1046FF0080808080008080800020203F212000016A
:10470F00000000808080808000003324242424193E
:10471F0000008080E0808000000000001F2020004B
:10472F00008080000000808000001F202020103FAC
:10473F0020808080000080808000010E30080601FC
:10474F000080800080008080800F300C030C300FC1
:10475F000000808000808080000020312E0E3120EC
:10476F0000808080000080808080818E701806011C
:10477F000000808080808080000021302C2221303A
:10478F000000000000807C020200000000003F409B
:10479F004000000000FF00000000000000FF0000CC
:1047AF00000002027C800000000040403F0000003B
:1047BF0000000601010202040400000000000000D6
:1047CF000061DB0280000000000000004F000000CD
:1047DF0007000700147F147F14242A7F2A12231343
:1047EF0008646236495522500005070000001C225C
:1047FF0041000041221C0014083E081408083E081E
:10480F000800503000000808080808006060000029
:10481F0020100804023E5149453E00427F400042AD
:10482F00615149462141454B311814127F102745DC
:10483F004545393C4A494930017109050336494913
:10484F004936064949291E00363600000056360003
:10485F0000081422410014141414140041221408E7
:10486F000201510906324979413E7E1111117E7FB5
:10487F00494949363E414141227F4141221C7F49EE
:10488F004949417F090909013E4149497A7F080891
:10489F00087F00417F41002040413F017F081422E3
:1048AF00417F404040407F020C027F7F0408107F11
:1048BF003E4141413E7F090909063E4151215E7F3C
:1048CF0009192946464949493101017F01013F40F4
:1048DF0040403F1F2040201F3F4038403F63140897
:1048EF00146307087008076151494543007F414130
:1048FF000002040810200041417F0004020102045D
:10490F004040404040010204000020545454787F3E
:10491F00484848303844444444304848487F385425
:10492F0054545800087E0902485454543C7F0808D8
:10493F00087000007A00002040403D007F2028448E
:10494F000000417F40007C0438047C7C080404781C
:10495F0038444444387C14141408081414147C7C10
:10496F0008040408485454542404043F44243C408D
:10497F0040403C1C2040201C3C4030403C44281010
:10498F00284404483008044464544C4408364141D8
:10499F0000000077000000414136080402020201C6
:10765800E4FB7D067F02126CE0D2A6E4FB7D067F88
:1076680001126CE0E4FB7D077F01126CE0E4FB7D16
:10767800047F04126CE0E4FB7D057F01126CE0E4FA
:10768800FB7D037F01126CE0D296C2977F647E0077
:10769800127FF0D2977F647E00127FF07FE2127D26
:1076A800447F057E00127FF07F2C127D447F057E8B
:1076B80000127FF07F2E127D447F057E00127FF03E
:1076C8007F2F127D447F057E00127FF07F24127D7C
:1076D800447F81127D447F12127D447FA2127D4433
:1076E8007FC8127D447FA0127D447F40127D447F75
:0776F800AF127D44027F2F59
:057D4400901401EFF0B6
:107D4900C296C2C4E4A3F0C2957F027E00127FF0FE
:107D5900901401E030E704D2938002C293D2957F58
:107D6900027E00127FF0901401E0FF7E0178010885
:107D79008002C333D8FC901401F0F0A3E004F0E0D2
:077D8900C3940840C2D2962A
:017D900022D0
:0C7BFD00E0FBA3E0FAA3E0F912516DFFD9
:057C0900901400EFF0F3
:107C0E00C296D2C4E4A3F0C2957F027E00127FF02A
:107C1E00901400E030E704D2938002C293D2957F95
:107C2E00027E00127FF0901400E0FF7E01780108C2
:107C3E008002C333D8FC901400F0F0A3E004F0E00F
:077C4E00C3940840C2D29666
:017C5500220C
:067FC300E02FFFA3E0FD2A
:107FC900901400EDF0E014F01FEF24B0FF127D448F
:107FD900901400E0C4540F2410FF127D4490140043
:077FE900E0540FFF027D448C
:107F2F00E49013F6F09013F6E0FFC394095026EF98
:107F3F0004FF7D01127FC9E49013F7F0E4FF127C78
:107F4F00099013F7E004F0E0C3948440EF9013F628
:057F5F00E004F080D0F9
:017F640022FA
:087DDB00901472EFF0A3EDF02B
:107DE300E4A3F0901474E0FFC394085033C296EFF9
:107DF30004FF7D01127FC9E4901475F0901472E0C2
:107E0300FF127C09901473E0FF127C09901475E053
:107E130004F0E0C3944040E4901474E004F080C3A1
:017E2300223C
:0A7B49007A07795D7B017D017F0161
:107B53009013F6EFF0A3EDF0A3EBF0A3EAF0A3E9A3
:017B6300F031
:107B6400E49013FCF09013FCE0FFC39402502F90B8
:107B740013F6127FC3E49013FBF09013F8127BFD0D
:107B84009013F9E475F0011251C59013FBE004F071
:0E7B9400E0C3948040E49013FCE004F080C74E
:017BA20022C0
:107C5600901456EFF0A3EDF0A3EBF0A3EAF0A3E93E
:017C6600F02D
:107C6700E490145CF090145CE0FFC39404502F90F0
:107C77001456127FC3E490145BF0901458127BFDE6
:107C8700901459E475F0011251C590145BE004F0AB
:0E7C9700E0C3941F40E490145CE004F080C74A
:017CA50022BC
:107898009013F97401F0A37409F0A37411F07D4CEE
:0478A8007B017F03DE
:0B78AC009013F6EFF0A3EDF0A3EBF05B
:1078B700E49013FDF09013FDE0FFC3940250519044
:1078C70013F6127FC3E49013FCF09013F8E0B401B1
:1078D7000EA3E0FBA3E0FAA3E0F912516D800F902D
:1078E70013F9E0FBA3E0FAA3E0F912516DF4FF12DC
:1078F7007C099013FAE475F0011251C59013FCE06E
:1079070004F0E0C3941040C29013FDE004F080A59A
:01791700224D
:0A7BA3007A08799D7D097B017F03BC
:107BAD009013F6EFF0A3EDF0A3EBF0A3EAF0A3E949
:017BBD00F0D7
:107BBE00E49013FCF09013FCE0FFC39402502F905E
:107BCE0013F6127FC3E49013FBF09013F8127BFDB3
:107BDE009013F9E475F0011251C59013FBE004F017
:0E7BEE00E0C3940840E49013FCE004F080C76C
:017BFC002266
:107CA60090145DEFF0A3EDF0A3EBF0A3EAF0A3E9E7
:017CB600F0DD
:107CB700E4901463F0901463E0FFC39401502F9095
:107CC700145D127FC3E4901462F090145F127BFD81
:107CD700901460E475F0011251C5901462E004F04D
:0E7CE700E0C3940840E4901463E004F080C70A
:017CF500226C
:0A5F24007B017A04795B7D017F03A5
:105F2E009013F6EFF0A3EDF0A3EBF0A3EAF0A3E9E4
:015F3E00F072
:105F3F00E4A3F09013F8E0FBA3E0FAA3E0F9A3E0E9
:105F4F00F582758300125186FFD3940050030264CB
:105F5F000FEF94205003026406EFD3947E400302A8
:105F6F006406EF24E09013FCF0E49013FEF090131E
:105F7F00FEE0FFC3940240030263F69013F6127F14
:105F8F00C3E49013FDF09013FDE0FDC394084003AC
:105F9F000263EDA3E075F008A47C002DFFEC35F053
:105FAF00FE9013FCE075F010A42476F582E5F03432
:105FBF0009F583E5822FF582E5833EF583E09013A3
:105FCF00FFF0901426E0FF6403600302608F9014CB
:105FDF0033E0FE6401704A9013FBE0FD70089014EB
:105FEF0027E06403602FEDB40108901427E06402EA
:105FFF0060239013FBE0B40308901427E064016062
:10600F00149013FBE0640460030263DC901427E038
:10601F0060030263DC901452E070030263DC0263DE
:10602F00D6EE6402702D9013FBE0FEB401089014BD
:10603F002BE064016011EE640260030263DC9014D4
:10604F002BE060030263DC901452E070030263DC08
:10605F000263D69013FBE0FEB40108901437E0649E
:10606F00016011EE640260030263DC901437E0609C
:10607F00030263DC901452E070030263DC0263D608
:10608F00EF64056003026147901433E0FF64017011
:10609F004A9013FBE0FE7008901428E06403602F11
:1060AF00EEB40108901428E0640260239013FBE023
:1060BF00B40308901428E0640160149013FBE064AB
:1060CF000460030263DC901428E060030263DC9039
:1060DF001452E070030263DC0263D6EF6402702C8B
:1060EF009013FBE0FF700890142CE064016011EF37
:1060FF00640160030263DC90142CE060030263DC34
:10610F00901452E070030263DC0263D69013FBE03D
:10611F00FF7008901438E064016011EF64016003B0
:10612F000263DC901438E060030263DC901452E0E9
:10613F0070030263DC0263D6901426E0FF640760ED
:10614F00030261E7901433E0FE6401702D9013FB9E
:10615F00E0FDB40108901429E064016011ED6402C0
:10616F0060030263DC901429E060030263DC901487
:10617F0052E070030263DC0263D6EE6402702D906E
:10618F0013FBE0FEB4010890142DE064016011EEE2
:10619F00640260030263DC90142DE060030263DC91
:1061AF00901452E070030263DC0263D69013FBE09D
:1061BF00FE7008901439E064016011EE6401600311
:1061CF000263DC901439E060030263DC901452E048
:1061DF0070030263DC0263D6EF640960030262811D
:1061EF00901433E0FF6401702C9013FBE0FE7008F5
:1061FF0090142AE064016011EE640160030263DC15
:10620F0090142AE060030263DC901452E0700302E2
:10621F0063DC0263D6EF6402702C9013FBE0FF7017
:10622F000890142EE064016011EF640160030263B3
:10623F00DC90142EE060030263DC901452E07003D4
:10624F000263DC0263D69013FBE0FF700890143AF0
:10625F00E064016011EF640160030263DC90143AA3
:10626F00E060030263DC901452E070030263DC020F
:10627F0063D6901426E0FF640B600302633F901413
:10628F0033E0FE6401704A9013FBE0FD7008901438
:10629F0027E06403602FEDB40108901427E0640237
:1062AF0060239013FBE0B40308901427E0640160AF
:1062BF00149013FBE0640460030263DC901427E086
:1062CF0060030263DC901452E070030263DC02632C
:1062DF00D6EE6402702D9013FBE0FEB4010890140B
:1062EF002FE064016011EE640260030263DC90141E
:1062FF002FE060030263DC901452E070030263DC52
:10630F000263D69013FBE0FEB40108901437E064EB
:10631F00016011EE640260030263DC901437E060E9
:10632F00030263DC901452E070030263DC0263D655
:10633F00EF640D60030263DC901433E0FF640170BF
:10634F00409013FBE0FE7008901428E0640360296E
:10635F00EEB40108901428E06402601D9013FBE076
:10636F00B40308901428E06401600E9013FBE064FE
:10637F0004705A901428E07054901452E0604E80CC
:10638F0046EF640270229013FBE0FF700890143602
:10639F00E06401600BEF64017033901436E0702DF0
:1063AF00901452E06027801F9013FBE0FF7008905D
:1063BF001438E06401600AEFB40112901438E070F1
:1063CF000C901452E060069013FFE0F4F09013FF6E
:1063DF00E0FF127C099013FDE004F0025F9590132B
:1063EF00FEE004F0025F7D9013FBE004F09013F7E2
:1063FF00E02408F0025F429013FBE004F0025F42DA
:01640F00226A
:107A0800901464EFF0A3EDF0A3EBF0A3EAF0A3E980
:017A1800F07D
:107A1900E4A3F0901466E0FBA3E0FAA3E0F9A3E085
:107A2900F582758300125186FFD394004044EF9488
:107A3900204037EF947E5032901466A3A3A3E0F55B
:107A49008275830012518624E090146AF0901464C0
:107A5900E0127FC5E4FF0FEFB405FB901469E00461
:107A6900F0901465E02406F080A9901469E004F010
:027A790080A1EA
:017A7B0022E8
:107CF60090146BEFF0A3EDF0A3EBF0A3EAF0A3E989
:017D0600F08C
:107D0700E4A3F0901470E0FFC39408502F90146B15
:107D1700127FC3E4901471F090146D127BFD9014E0
:107D27006EE475F0011251C5901471E004F0E0C3E0
:0C7D3700948040E4901470E004F080C7D9
:017D4300221D
:10799200901445EFF0A3EDF0A3EBF0A3EAF0A3E916
:0179A200F0F4
:1079A300E490144DF090144DE0FFC39408505590AB
:1079B3001445127FC3E490144EF090144AE0FBA3E5
:1079C300E0FAA3E0F912516DFF901447E0FBA3E046
:1079D300FAA3E0F912516D4FFF127C09901448E4A9
:1079E30075F0011251C590144BE475F0011251C5A5
:1079F30090144EE004F0E0C3948040BE90144DE038
:047A030004F080A16A
:017A0700225C
:1068930090132EE07004A3E064016003026BB790D1
:1068A3001444E064016003026A13127B497A057998
:1068B3000D7D01127BA9127BA39013F97401F0A340
:1068C3007401F0A37440F07D0C1278A89013F9744E
:1068D30001F0A37400F0A37400F07B017D1C7F031F
:1068E3001278AC9013F97401F0A37401F0A37460EF
:1068F300F07B017D2C7F031278AC9013F97401F0C7
:10690300A37407F0A3741DF07B017D3C7F03127811
:10691300AC1278987B017A05791D7D017F05127B86
:10692300AD7B017A08799D7D097F05127BAD9013BC
:10693300F97401F0A37401F0A37460F07B017D0C82
:106943007F051278AC9013F97401F0A37402F0A3DD
:106953007400F07B017D1C7F051278AC9013F974F1
:1069630001F0A37401F0A37460F07B017D2C7F051B
:106973001278AC9013F97401F0A37407F0A3741D9B
:10698300F07B017D3C7F051278AC9013F97401F024
:10699300A37409F0A37411F07B017D4C7F05127879
:1069A300AC7B017A06794D7D017F07127BAD7B01BC
:1069B3007A08799D7D097F07127BAD9013F97401E5
:1069C300F0A37406F0A374CDF07B017D0C7F071256
:1069D30078AC9013F97401F0A37404F0A3748DF0F0
:1069E3007B017D1C7F071278AC9013F97401F0A32F
:1069F3007401F0A37460F07B017D2C7F071278ACE7
:106A03009013F97401F0A37407F0A3741D026B894A
:106A1300901444E064026003026BAA127B497B0179
:106A23007A06795D7D017F03127BAD127BA3901300
:106A3300F97401F0A37401F0A37420F07B017D0CC1
:106A43007F031278AC9013F97401F0A37401F0A3DF
:106A53007460F07B017D1C7F031278AC9013F97492
:106A630001F0A37401F0A37460F07B017D2C7F031C
:106A73001278AC9013F97401F0A37406F0A3742D8B
:106A8300F07B017D3C7F031278AC1278987B017A0E
:106A930006798D7D017F05127BAD7B017A08799D97
:106AA3007D097F05127BAD9013F97401F0A3740681
:106AB300F0A374CDF07B017D0C7F051278AC9013AD
:106AC300F97401F0A37404F0A3748DF07B017D1CB1
:106AD3007F051278AC9013F97401F0A37401F0A34D
:106AE3007460F07B017D2C7F051278AC9013F974F0
:106AF30001F0A37406F0A3742DF07B017D3C7F05A8
:106B03001278AC9013F97401F0A37409F0A3741113
:106B1300F07B017D4C7F051278AC7B017A06799D71
:106B23007D017F07127BAD7B017A08799D7D097F0B
:106B330007127BAD9013F97401F0A37401F0A374F1
:106B4300C0F07B017D0C7F071278AC9013F97401C0
:106B5300F0A37408F0A374ADF07B017D1C7F0712D2
:106B630078AC9013F97401F0A37408F0A3745DF08A
:106B73007B017D2C7F071278AC9013F97401F0A38D
:106B8300740FF0A37466F07B017D3C7F071278AC31
:106B93009013F97401F0A37409F0A37411F07B014D
:106BA3007D4C7F070278AC901444E07B017A07792F
:106BB3005D026CDC901444E0640170797A00792002
:106BC300127B4D9013F974FFF0A37475F0A374B0A6
:106BD300F0A374FFF0A37475F0A374B3F07B017A90
:106BE30004795B126475125F249013F974FFF0A3A8
:106BF3007475F0A374B0F0A374FFF0A37475F0A3DD
:106C030074BEF07B017A04795B1264757B017A04AC
:106C1300795B7D017F05125F2E9013F974FFF0A35A
:106C23007475F0A374B0F0A374FFF0A37475F0A3AC
:106C330074C9026CBB901444E064026003026CD21A
:106C43007B017A007920127B4F9013F974FFF0A334
:106C53007475F0A374B0F0A374FFF0A37475F0A37C
:106C630074D4F07B017A04795B126475125F24900B
:106C730013F974FFF0A37475F0A374B0F0A374FF59
:106C8300F0A37475F0A374DFF07B017A04795B12CF
:106C930064757B017A04795B7D017F05125F2E9019
:106CA30013F974FFF0A37475F0A374B0F0A374FF29
:106CB300F0A37475F0A374EAF07B017A04795B1294
:106CC30064757B017A04795B7D017F07025F2E90F7
:0D6CD3001444E07B017A007920127B4F22EF
:1058F40090132EE07004A3E064016003025D9190B4
:105904001433E064016003025A827B017A05792D25
:10591400127B4F7B017A05790D7D017F03127BADEC
:10592400127BA39013F97401F0A37401F0A37440E3
:10593400F07B017D0C7F031278AC9013F97401F0B5
:10594400A37401F0A374E0F07B017D1C7F03127843
:10595400AC9013F97401F0A37401F0A37460F07BAC
:10596400017D2C7F031278AC9013F97401F0A374B9
:1059740007F0A3741DF07B017D3C7F031278AC1209
:1059840078987B017A05791D7D017F05127BAD7BBB
:10599400017A08799D7D097F05127BAD9013F97416
:1059A40001F0A37407F0A3743DF07B017D0C7F0527
:1059B4001278AC9013F97401F0A37404F0A374ED9D
:1059C400F07B017D1C7F051278AC9013F97401F013
:1059D400A37401F0A37460F07B017D2C7F05127821
:1059E400AC9013F97401F0A37406F0A3742DF07B4A
:1059F400017D3C7F051278AC9013F97401F0A37417
:105A040009F0A37411F07B017D4C7F051278AC7B07
:105A1400017A06794D7D017F07127BAD7B017A08FF
:105A2400799D7D097F07127BAD9013F97401F0A372
:105A34007406F0A3746DF07B017D0C7F071278ACC3
:105A44009013F97401F0A37408F0A374CDF07B01F2
:105A54007D1C7F071278AC9013F97401F0A37402D3
:105A6400F0A37440F07B017D2C7F071278AC901377
:105A7400F97401F0A37401F0A374A0025D70901492
:105A840033E064027B017A05792D7D017F01600397
:105A9400025C05127B537B017A06795D7D017F03ED
:105AA400127BAD127BA39013F97401F0A37406F07A
:105AB400A3746DF07B017D0C7F031278AC9013F915
:105AC4007401F0A37406F0A374FDF07B017D1C7FC8
:105AD400031278AC9013F97401F0A37402F0A37468
:105AE40040F07B017D2C7F031278AC9013F9740194
:105AF400F0A37401F0A374A0F07B017D3C7F03123A
:105B040078AC1278987B017A06798D7D017F051235
:105B14007BAD7B017A08799D7D097F05127BAD9071
:105B240013F97401F0A37406F0A3746DF07B017D86
:105B34000C7F051278AC9013F97401F0A37404F08F
:105B4400A374ADF07B017D1C7F051278AC9013F932
:105B54007401F0A37402F0A37440F07B017D2C7FE8
:105B6400051278AC9013F97401F0A37401F0A374D6
:105B7400A0F07B017D3C7F051278AC9013F9740191
:105B8400F0A37409F0A37411F07B017D4C7F05121E
:105B940078AC7B017A06799D7D017F07127BAD7B12
:105BA400017A08799D7D097F07127BAD9013F97402
:105BB40001F0A37406F0A3746DF07B017D0C7F07E4
:105BC4001278AC9013F97401F0A37408F0A3747DF7
:105BD400F07B017D1C7F071278AC9013F97401F0FF
:105BE400A37402F0A37440F07B017D2C7F0712782C
:105BF400AC9013F97401F0A37401F0A374A0025DD6
:105C040070127B537B017A0679AD7D017F03127B91
:105C1400AD127BA39013F97401F0A37406F0A3747E
:105C24006DF07B017D0C7F031278AC9013F9740145
:105C3400F0A37409F0A37456F07B017D1C7F03125A
:105C440078AC9013F97401F0A37402F0A37440F0DB
:105C54007B017D2C7F031278AC9013F97401F0A3BF
:105C64007401F0A374A0F07B017D3C7F031278AC37
:105C74001278987B017A0679BD7D017F05127BAD90
:105C84007B017A08799D7D097F05127BAD9013F91C
:105C94007401F0A37401F0A37460F07B017D0C7FA8
:105CA400051278AC9013F97401F0A37402F0A37494
:105CB40000F07B017D1C7F051278AC9013F9740110
:105CC400F0A37402F0A37460F07B017D2C7F0512B5
:105CD40078AC9013F97401F0A37402F0A37420F06B
:105CE4007B017D3C7F051278AC9013F97401F0A31D
:105CF4007409F0A37411F07B017D4C7F051278AC1C
:105D04007B017A0679ED7D017F07127BAD7B017AF9
:105D140008799D7D097F07127BAD9013F97401F01A
:105D2400A37401F0A37440F07B017D0C7F0712780B
:105D3400AC9013F97401F0A37401F0A374E0F07B48
:105D4400017D1C7F071278AC9013F97401F0A374E1
:105D540004F0A374CDF07B017D2C7F071278AC9006
:105D640013F97401F0A37401F0A37480F07B017D36
:105D74003C7F071278AC9013F97401F0A37409F016
:105D8400A37411F07B017D4C7F070278AC9014332F
:105D9400E06401707B7B017A0F7986127B4F90134C
:105DA400F974FFF0A37475F0A374B0F0A374FFF05A
:105DB400A37475F0A374F5F07B017A04795B126423
:105DC40075125F249013F974FFF0A37475F0A37433
:105DD400B0F0A374FFF0A37476F0A37400F07B0119
:105DE4007A04795B1264757B017A04795B7D017FA7
:105DF40005125F2E9013F974FFF0A37475F0A37469
:105E0400B0F0A374FFF0A37476F0A3740B025F0CDC
:105E1400901433E064027B017A0F79867D017F015F
:105E24007074127B539013F974FFF0A37475F0A38C
:105E340074B0F0A374FFF0A37476F0A37416F07B2F
:105E4400017A04795B126475125F249013F974FF6C
:105E5400F0A37475F0A374B0F0A374FFF0A3747688
:105E6400F0A37421F07B017A04795B1264757B01E1
:105E74007A04795B7D017F05125F2E9013F974FF1C
:105E8400F0A37475F0A374B0F0A374FFF0A3747658
:105E9400F0A3742C8072127B539013F974FFF0A357
:105EA4007475F0A374B0F0A374FFF0A37476F0A338
:105EB4007437F07B017A04795B126475125F249065
:105EC40013F974FFF0A37475F0A374B0F0A374FF16
:105ED400F0A37476F0A37442F07B017A04795B1228
:105EE40064757B017A04795B7D017F05125F2E90D6
:105EF40013F974FFF0A37475F0A374B0F0A374FFE6
:105F0400F0A37476F0A3744DF07B017A04795B12EC
:105F140064757B017A04795B7D017F07125F2E2211
:0C81D200E4FB7D027F01126CE0C29222EF
:1078130025352E3266560A0025352E3266410A007A
:10782300202530327820480A002025303278204144
:107833000A00372E745F61643D253034640A0038D2
:107843002E695F61643D253034640A00392E545F2C
:1078530061643D253034640A0042545F253032644C
:107863005F48562D3E25352E3266560A0042545F38
:10787300253032645F4C562D3E25352E3266560A2E
:107883000025336425250A002532640A0025326465
:057893006D696E0A00A2
:0549AF00421476000037
:10810A0043BA8090FE027480F090FE02E030E0F9FB
:0C811A0090FE00E4F053BA7F75C12722EC
:1080CF0012810A12000E1281D21281C61281811200
:0E80DF00801A127EF4127658127A7C027F65A7
:0300080002720978
:107D9100D28C9014557401F0E4901476F0A3F07B2A
:107DA100017A0979317D017F01125F2E7B017A0809
:107DB10079ED7D117F03125F2E7B017A0879FB7DBE
:107DC100117F05125F2E7B017A0979097D4C7F07AE
:0A7DD100125F2E7F0A7E00027F96EB
:101D93001280CF120008127D9143C110901432E0DB
:101DA300B40108120046E4901432F090143CE0B4FD
:101DB300010F901426E0B40108127E6CE490143CE9
:101DC300F090144FE06401600302369A901426E009
:101DD300701C90132EE07004A3E064017B01700774
:101DE3007A09794202202F7A09794C02202F901424
:101DF30026E0640160030220F6901444E06401606D
:101E030003021EBA9013F974FFF0A37478F0A3745D
:101E130013F0E4FBFA79C878429012E2E0FCA3E005
:101E2300FDA3E0FEA3E0FF124CEC9013FC1251FF64
:101E33007B017A04795B1264757B017A04795B7D9B
:101E4300507F03125F2E9013F974FFF0A37478F0A0
:101E5300A37413F0E4FBFA79C878429012DEE0FC35
:101E6300A3E0FDA3E0FEA3E0FF124CEC9013FC12F1
:101E730051FF7B017A04795B1264757B017A0479E3
:101E83005B7D507F05125F2E9013F974FFF0A374EE
:101E930078F0A37413F0E4FBFA79C8784290134204
:101EA300E0FCA3E0FDA3E0FEA3E0FF124CEC9013E3
:101EB300FC1251FF021F7E901444E064026003028F
:101EC3001F929013F974FFF0A37478F0A3741BF0BE
:101ED300E4FBFA79C878429012D0E0FCA3E0FDA3BA
:101EE300E0FEA3E0FF124CEC9013FC1251FF7B01C8
:101EF3007A04795B1264757B017A04795B7D507F88
:101F030003125F2E9013F974FFF0A37478F0A37497
:101F13001BF0E4FBFA79C878429012E6E0FCA3E0F8
:101F2300FDA3E0FEA3E0FF124CEC9013FC1251FF63
:101F33007B017A04795B1264757B017A04795B7D9A
:101F4300507F05125F2E90143DE07004A3E06401FE
:101F53009013F9700C74FFF0A37478F0A3742380CA
:101F63000A74FFF0A37478F0A3742CF090133CE090
:101F7300FFA3E09013FCCFF0A3EFF07B017A047989
:101F83005B1264757B017A04795B7D500223F590C3
:101F93001444E0640360030220349013F974FFF0E7
:101FA300A37478F0A37435F09012F2E0FFA3E090ED
:101FB30013FCCFF0A3EFF07B017A04795B12647515
:101FC3007B017A04795B7D017F03125F2E9013F905
:101FD30074FFF0A37478F0A37442F09012D8E0FF7A
:101FE300A3E09013FCCFF0A3EFF07B017A04795BBD
:101FF3001264757B017A04795B7D017F05125F2E84
:102003009013F974FFF0A37478F0A3744FF0901257
:10201300DCE0FFA3E09013FCCFF0A3EFF07B017AA9
:1020230004795B1264757B017A04795B7D01022379
:10203300F59013F974FFF0A37478F0A3745CF09037
:102043001434E0FEA3E0FF9013FCEEF0A3EFF0786E
:1020530003C333CE33CED8F9248AF58274123EF506
:1020630083E0FCA3E0FDA3E0FEA3E0FFE4FBFA7939
:10207300C87842124CEC9013FE1251FF7B017A0494
:10208300795B1264757B017A04795B7D017F0312AE
:102093005F2E9013F974FFF0A37478F0A37470F0BB
:1020A300901434E0FEA3E0FF9013FCEEF0A3EFF0F6
:1020B3007803C333CE33CED8F9248EF58274123E1F
:1020C300F583E0FCA3E0FDA3E0FEA3E0FFE4FBFA5D
:1020D30079C87842124CEC9013FE1251FF7B017ABF
:1020E30004795B1264757B017A04795B7D017F055A
:1020F3000223F7901426E0640260030223FD901488
:1021030033E0640160030221F69013F974FFF0A336
:102113007478F0A37413F0E4FBFA79C8784290134F
:1021230038E0FCA3E0FDA3E0FEA3E0FF124CEC903B
:1021330013FC1251FF7B017A04795B1264757B01F6
:102143007A04795B7D527F03125F2E9013F974FF3B
:10215300F0A37478F0A3741BF0E4FBFA79C8784217
:1021630090133EE0FCA3E0FDA3E0FEA3E0FF124CCE
:10217300EC9013FC1251FF7B017A04795B126475B6
:102183007B017A04795B7D527F05125F2E9013F9F0
:1021930074FFF0A37478F0A37484F09012FCE0FF52
:1021A300A3E09013FCCFF0A3EFF07B017A04795BFB
:1021B3001264757B017A04795B7D527F07125F2E6F
:1021C3009013F974FFF0A37478F0A3748BF090125A
:1021D300CAE0FFA3E09013FCCFF0A3EFF07B017AFA
:1021E30004795B1264757B017A04795B7D727F07E6
:1021F3000223F7901433E064029013F9600302237F
:102203003174FFF0A37478F0A37484F0901306E0A4
:10221300FFA3E09013FCCFF0A3EFF07B017A0479E6
:102223005B1264757B017A04795B7D527F03125FD5
:102233002E9013F974FFF0A37478F0A3748BF090CD
:1022430012CCE0FFA3E09013FCCFF0A3EFF07B01EF
:102253007A04795B1264757B017A04795B7D727F02
:1022630003125F2E9013F974FFF0A37478F0A37434
:1022730084F0901310E0FFA3E09013FCCFF0A3EFE2
:10228300F07B017A04795B1264757B017A04795BD4
:102293007D527F05125F2E9013F974FFF0A37478BB
:1022A300F0A3748BF09012CEE0FFA3E09013FCCF69
:1022B300F0A3EFF07B017A04795B1264757B017AFA
:1022C30004795B7D727F05125F2E9013F974FFF022
:1022D300A37478F0A37484F090131AE0FFA3E09042
:1022E30013FCCFF0A3EFF07B017A04795B126475E2
:1022F3007B017A04795B7D527F07125F2E9013F97D
:1023030074FFF0A37478F0A3748BF09012D4E0FF01
:10231300A3E09013FCCFF0A3EFF07B017A04795B89
:102323001264757B017A04795B7D720223F574FF75
:10233300F0A37478F0A37484F0901324E0FFA3E077
:102343009013FCCFF0A3EFF07B017A04795B126466
:10235300757B017A04795B7D527F03125F2E9013A4
:10236300F974FFF0A37478F0A3748BF09012D6E0A5
:10237300FFA3E09013FCCFF0A3EFF07B017A047985
:102383005B1264757B017A04795B7D727F03125F54
:102393002E9013F974FFF0A37478F0A3748BF0906C
:1023A3001288E0FFA3E09013FCCFF0A3EFF07B01D2
:1023B3007A04795B1264757B017A04795B7D527FC1
:1023C30005125F2E9013F974FFF0A37478F0A374D1
:1023D30090F09012DAE0FFA3E09013FCCFF0A3EFAC
:1023E300F07B017A04795B1264757B017A04795B73
:1023F3007D527F07125F2E023695901426E0640308
:10240300600302271A901433E0640160030225017C
:102413009013F974FFF0A37478F0A37413F0E4FB42
:10242300FA79C87842901338E0FCA3E0FDA3E0FEFC
:10243300A3E0FF124CEC9013FC1251FF7B017A04D2
:10244300795B1264757B017A04795B7D527F031299
:102453005F2E9014267402F09013F974FFF0A374A6
:1024630078F0A3741BF0E4FBFA79C8784290133E2A
:10247300E0FCA3E0FDA3E0FEA3E0FF124CEC90130D
:10248300FC1251FF7B017A04795B1264757B017A3C
:1024930004795B7D527F05125F2E9013F974FFF070
:1024A300A37478F0A37484F09012FCE0FFA3E0908F
:1024B30013FCCFF0A3EFF07B017A04795B12647510
:1024C3007B017A04795B7D527F07125F2E9013F9AB
:1024D30074FFF0A37478F0A3748BF09012CAE0FF3A
:1024E300A3E09013FCCFF0A3EFF07B017A04795BB8
:1024F3001264757B017A04795B7D7202270C901458
:1025030033E064029013F9600302264274FFF0A3E0
:102513007478F0A37484F0901306E0FFA3E09013A3
:10252300FCCFF0A3EFF07B017A04795B1264757B37
:10253300017A04795B7D527F03125F2E9014267417
:1025430002F09013F974FFF0A37478F0A3748BF086
:102553009012CCE0FFA3E09013FCCFF0A3EFF07B4D
:10256300017A04795B1264757B017A04795B7D726D
:102573007F03125F2E9013F974FFF0A37478F0A316
:102583007484F0901310E0FFA3E09013FCCFF0A34A
:10259300EFF07B017A04795B1264757B017A04792D
:1025A3005B7D527F05125F2E9013F974FFF0A374C5
:1025B30078F0A3748BF09012CEE0FFA3E09013FCAD
:1025C300CFF0A3EFF07B017A04795B1264757B0192
:1025D3007A04795B7D727F05125F2E9013F974FF85
:1025E300F0A37478F0A37484F090131AE0FFA3E0CF
:1025F3009013FCCFF0A3EFF07B017A04795B1264B4
:10260300757B017A04795B7D527F07125F2E9013ED
:10261300F974FFF0A37478F0A3748BF09012D4E0F4
:10262300FFA3E09013FCCFF0A3EFF07B017A0479D2
:102633005B1264757B017A04795B7D7202270C74EB
:10264300FFF0A37478F0A37484F0901324E0FFA345
:10265300E09013FCCFF0A3EFF07B017A04795B12D7
:1026630064757B017A04795B7D527F03125F2E9040
:1026730014267402F09013F974FFF0A37478F0A396
:10268300748BF09012D6E0FFA3E09013FCCFF0A37D
:10269300EFF07B017A04795B1264757B017A04792C
:1026A3005B7D727F03125F2E9013F974FFF0A374A6
:1026B30078F0A3748BF0901288E0FFA3E09013FCF2
:1026C300CFF0A3EFF07B017A04795B1264757B0191
:1026D3007A04795B7D527F05125F2E9013F974FFA4
:1026E300F0A37478F0A37490F09012DAE0FFA3E003
:1026F3009013FCCFF0A3EFF07B017A04795B1264B3
:10270300757B017A04795B7D527F07125F2E9014EB
:10271300267403F0023695901426E06405600302E4
:102723002A37901433E06401600302281E9013F9E2
:1027330074FFF0A37478F0A3741BF0E4FBFA79C878
:10274300784290133EE0FCA3E0FDA3E0FEA3E0FF8C
:10275300124CEC9013FC1251FF7B017A04795B124B
:1027630064757B017A04795B7D527F05125F2E903D
:1027730014267402F09013F974FFF0A37478F0A395
:102783007413F0E4FBFA79C87842901338E0FCA3A1
:10279300E0FDA3E0FEA3E0FF124CEC9013FC12510A
:1027A300FF7B017A04795B1264757B017A04795BA0
:1027B3007D527F03125F2E9013F974FFF0A3747898
:1027C300F0A37484F09012FCE0FFA3E09013FCCF1D
:1027D300F0A3EFF07B017A04795B1264757B017AD5
:1027E30004795B7D527F07125F2E9013F974FFF01B
:1027F300A37478F0A3748BF09012CAE0FFA3E09067
:1028030013FCCFF0A3EFF07B017A04795B126475BC
:102813007B017A04795B7D72022A29901433E06488
:10282300029013F9600302295F74FFF0A37478F038
:10283300A3748BF09012CCE0FFA3E09013FCCFF0D5
:10284300A3EFF07B017A04795B1264757B017A0450
:10285300795B7D727F03125F2E9014267402F090D1
:1028630013F974FFF0A37478F0A37484F090130643
:10287300E0FFA3E09013FCCFF0A3EFF07B017A0419
:10288300795B1264757B017A04795B7D527F031255
:102893005F2E9013F974FFF0A37478F0A37484F09F
:1028A300901310E0FFA3E09013FCCFF0A3EFF07BB5
:1028B300017A04795B1264757B017A04795B7D523A
:1028C3007F05125F2E9013F974FFF0A37478F0A3C1
:1028D300748BF09012CEE0FFA3E09013FCCFF0A333
:1028E300EFF07B017A04795B1264757B017A0479DA
:1028F3005B7D727F05125F2E9013F974FFF0A37452
:1029030078F0A37484F090131AE0FFA3E09013FC13
:10291300CFF0A3EFF07B017A04795B1264757B013E
:102923007A04795B7D527F07125F2E9013F974FF4F
:10293300F0A37478F0A3748BF09012D4E0FFA3E0BB
:102943009013FCCFF0A3EFF07B017A04795B126460
:10295300757B017A04795B7D72022A2974FFF0A3E7
:102963007478F0A3748BF09012D6E0FFA3E0901379
:10297300FCCFF0A3EFF07B017A04795B1264757BE3
:10298300017A04795B7D727F03125F2E90142674A3
:1029930002F09013F974FFF0A37478F0A37484F039
:1029A300901324E0FFA3E09013FCCFF0A3EFF07BA0
:1029B300017A04795B1264757B017A04795B7D5239
:1029C3007F03125F2E9013F974FFF0A37478F0A3C2
:1029D300748BF0901288E0FFA3E09013FCCFF0A378
:1029E300EFF07B017A04795B1264757B017A0479D9
:1029F3005B7D527F05125F2E9013F974FFF0A37471
:102A030078F0A37490F09012DAE0FFA3E09013FC47
:102A1300CFF0A3EFF07B017A04795B1264757B013D
:102A23007A04795B7D527F07125F2E90142674051A
:102A3300F0023695901426E064076003022D569049
:102A43001433E064016003022B3D9013F974FFF02B
:102A5300A37478F0A37484F09012FCE0FFA3E090D9
:102A630013FCCFF0A3EFF07B017A04795B1264755A
:102A73007B017A04795B7D527F07125F2E901426C7
:102A83007402F09013F974FFF0A37478F0A3748BBD
:102A9300F09012CAE0FFA3E09013FCCFF0A3EFF095
:102AA3007B017A04795B1264757B017A04795B7D1F
:102AB300727F07125F2E9013F974FFF0A37478F0FE
:102AC300A3741BF0E4FBFA79C8784290133EE0FC50
:102AD300A3E0FDA3E0FEA3E0FF124CEC9013FC1275
:102AE30051FF7B017A04795B1264757B017A047967
:102AF3005B7D527F05125F2E9013F974FFF0A37470
:102B030078F0A37413F0E4FBFA79C8784290133891
:102B1300E0FCA3E0FDA3E0FEA3E0FF124CEC901366
:102B2300FC1251FF7B017A04795B1264757B017A95
:102B330004795B7D527F03022D4A901433E06402D3
:102B43009013F96003022C7E74FFF0A37478F0A352
:102B53007484F0901310E0FFA3E09013FCCFF0A374
:102B6300EFF07B017A04795B1264757B017A047957
:102B73005B7D527F05125F2E9014267402F0901332
:102B8300F974FFF0A37478F0A37484F0901306E053
:102B9300FFA3E09013FCCFF0A3EFF07B017A04795D
